:020000040800F2
:10000000F8060020AD070008090200080B020008EE
:100010000F02000813020008170200080000000089
:100020000000000000000000000000001B020008AB
:100030001D020008000000001F0200082102000845
:10004000C7070008C7070008C7070008C707000858
:10005000C7070008C7070008C7070008C707000848
:10006000C7070008C7070008C7070008C707000838
:10007000C7070008C7070008C7070008C707000828
:10008000C7070008C7070008C7070008C707000818
:10009000C7070008C7070008C7070008C707000808
:1000A000C7070008C7070008C7070008C7070008F8
:1000B000C7070008C7070008C7070008C7070008E8
:1000C000C7070008C7070008C7070008C7070008D8
:1000D000C707000847070008C7070008C707000848
:1000E000C7070008C7070008C7070008C7070008B8
:1000F000C7070008C7070008C7070008C7070008A8
:10010000C7070008C7070008C7070008C707000897
:10011000C7070008C7070008C7070008C707000887
:10012000C7070008C7070008C7070008C707000877
:1001300000F002F800F043F80AA090E8000C8244B6
:100140008344AAF10107DA4501D100F038F8AFF293
:10015000090EBAE80F0013F0010F18BFFB1A43F0A5
:10016000010318475C2400007C240000103A24BFDF
:1001700078C878C1FAD8520724BF30C830C144BF0C
:1001800004680C607047000000230024002500264E
:10019000103A28BF78C1FBD8520728BF30C148BFEA
:1001A0000B6070471FB502F099F904000020002190
:1001B00002F0F0F9401C60601FBD10B510BD02F0E8
:1001C00068F91146FFF7EEFF00F008F802F098F921
:1001D00003B4FFF7F2FF03BC00F0FEF900F092F960
:1001E0004FF4E13000F007FA00F010F9002101208F
:1001F00000F05CF90021022000F058F900210320F2
:1002000000F054F900BFFEE7704700BFFEE700BFF3
:10021000FEE700BFFEE700BFFEE77047704770478C
:10022000704700000CB50020019000906C480068F9
:1002300040F480306A49086000BF6948006800F4F3
:10024000003000900198401C0190009818B9019866
:10025000B0F5A06FF1D16248006800F4003010B131
:100260000120009001E0002000900098012843D177
:100270005C48006840F010005A4908600846006871
:1002800020F0030008600846006840F002000860A3
:1002900053484068524948600846406848600846EC
:1002A000406840F4806048600846406820F47C1054
:1002B00048600846406840F4881048600846006876
:1002C00040F08070086000BF4548006800F0007092
:1002D0000028F9D04248406820F0030040494860B7
:1002E0000846406840F00200486000BF3C48406853
:1002F00000F00C000828F9D10CBD10B5FFF792FFF3
:1003000010BD10B53648006840F00100344908605F
:10031000084640683449084031494860084600684A
:10032000324908402E4908600846006820F48020C1
:1003300008600846406820F4FE0048604FF41F0043
:100340008860FFF7DAFF4FF000602949086010BDB0
:1003500010B5002100200022214B5B6803F00C0146
:1003600021B1042906D0082928D107E0214B224CCD
:10037000236027E0214B204C236023E0184B5B686F
:1003800003F47010164B5B6803F48032022303EB16
:10039000904022B91A4B4343174C23600DE0104B99
:1003A0005B6803F4003323B1164B4343124C2360C4
:1003B00003E0124B4343104C236003E00D4B0E4C03
:1003C000236000BF00BF064B5B68C3F303130E4CF2
:1003D000E15C094B1B68CB40074C236010BD00005B
:1003E00000100240002002400000FFF8FFFFF6FE70
:1003F00008ED00E000127A0000000020001BB700AA
:1004000000093D00808D5B000400002000B589B02C
:100410000121042000F006FD0121082000F00FFD5D
:1004200018208DF823000720ADF8200003208DF858
:10043000220008A9314800F039FA314800F0CCFF19
:10044000FF20ADF818004720ADF814000020ADF8EB
:100450001A00ADF8160005A9294801F091F86020AE
:10046000ADF804000120ADF806000020ADF80C0046
:1004700001A9234801F0C1F801A9214801F0FFF8C2
:1004800001A91F4801F048F908211D4801F004FDA9
:1004900008211B4801F009FD0821194801F012FD4F
:1004A0000121174801F0C8FB09B000BD70B5054631
:1004B0000C46012D04D0022D07D0032D0FD109E0E9
:1004C000A1B20F4801F054FE16E0A1B20C4801F0B1
:1004D0004BFE11E0A1B20A4801F048FE0CE00021F9
:1004E000074801F041FE0021054801F03FFE0021D0
:1004F000034801F03BFE00BF00BF70BD0008014093
:10050000000C004010B56FF0040000F046FF2E48CC
:1005100000682E49B0FBF1F02D49087008460078BC
:1005200000EB4001C1EBC0104FF6FF7101EAC000C3
:100530002849088010BD0146254A12784A434FF0E9
:10054000E0235A6100229A611A46126942F00102C0
:100550001A6100BF4FF0E022106900F001021AB1E9
:1005600000F48032002AF5D04FF0E022126922F028
:1005700001024FF0E0231A6100229A6170470146A0
:10058000144A12884A434FF0E0235A6100229A61CC
:100590001A46126942F001021A6100BF4FF0E022D0
:1005A000106900F001021AB100F48032002AF5D07F
:1005B0004FF0E022126922F001024FF0E0231A61AD
:1005C00000229A61704700000000002000127A00AB
:1005D0001400002016000020014600BF704700BF35
:1005E0006B4A128802F04002002AF9D0C2B2684B6E
:1005F0001B1D1A80704710B586B00446012144F2D5
:10060000040000F00FFC4FF40070ADF8140003205C
:100610008DF8160018208DF8170005A95D4800F028
:1006200045F94FF48060ADF8140004208DF81700F0
:1006300005A9584800F03AF925208DF8000003205C
:100640008DF801008DF8020001208DF80300684646
:1006500000F059FE01940020ADF80800ADF80A0042
:10066000ADF80C00ADF810000C20ADF80E0001A99B
:10067000474800F082FC012240F22551444800F036
:1006800014FD0121424800F004FD06B010BD2DE923
:10069000F04F8FB006460F46304601F0CAFD0746C0
:1006A0003DA1304601F0B3FD80463CA1304601F04B
:1006B000AEFD04463AA1304601F0A9FD0546A4EB83
:1006C0000800421E08F101010AA801F0F3FD002113
:1006D000A4EB0800401E0AAA1154281B421E611CEC
:1006E00005A801F0E7FD0021281B401E05AA1154B2
:1006F000A81B381A421E691C684601F0DBFD002168
:10070000A81B381A401E0DF800100AA801F072FD4F
:1007100000F0FF0905A801F06DFD00F0FF0A684632
:1007200001F068FD00F0FF0B49460120FFF7BEFE17
:1007300051460220FFF7BAFE59460320FFF7B6FEE6
:100740000FB0BDE8F08F10B540F22551104800F011
:1007500091FDD8B10E4800F00DFDC4B22A2C0DD188
:10076000104801781048FFF792FF0E4801780E48B4
:1007700001F07EFD00200B49087007E00948017870
:100780000078401C074A10700748445410BD000010
:1007900000380140000801405200000047000000FE
:1007A000420000001C00002034000020094880475F
:1007B00009480047FEE7FEE7FEE7FEE7FEE7FEE743
:1007C000FEE7FEE7FEE7FEE704480549054A064B5B
:1007D000704700000303000831010008F800002002
:1007E000F8060020F8020020F802002010B50446A8
:1007F000CC48844208D10121042000F02DFB0021C7
:10080000042000F029FB46E0C748844208D10121BA
:10081000082000F021FB0021082000F01DFB3AE039
:10082000C248844208D10121102000F015FB0021AC
:10083000102000F011FB2EE0BD48844208D10121B8
:10084000202000F009FB0021202000F005FB22E021
:10085000B848844208D10121402000F0FDFA00216F
:10086000402000F0F9FA16E0B348844208D1012193
:10087000802000F0F1FA0021802000F0EDFA0AE07B
:10088000AE48844207D10121801500F0E5FA00212D
:10089000A01500F0E1FA10BD10B50121084600F0E6
:1008A000DBFA0021012000F0D7FA10BD2DE9F0415C
:1008B000024600250026002000230024002791F88E
:1008C00003C00CF00F0591F803C00CF0100CBCF144
:1008D000000F03D091F802C04CEA050591F800C062
:1008E000BCF1000F31D0146800202BE04FF0010C58
:1008F0000CFA00F3B1F800C00CEA03069E4220D1C6
:1009000083004FF00F0C0CFA03F7BC4305FA03FC0D
:100910004CEA040491F803C0BCF1280F06D14FF053
:10092000010C0CFA00FCC2F814C00AE091F803C0F4
:10093000BCF1480F05D14FF0010C0CFA00FCC2F8D5
:1009400010C0401C0828D1D31460B1F800C0BCF11D
:10095000FF0F34DD546800202EE000F1080C4FF04A
:10096000010808FA0CF3B1F800C00CEA03069E4235
:1009700021D183004FF00F0C0CFA03F7BC4305FAAA
:1009800003FC4CEA040491F803C0BCF1280F05D124
:1009900000F1080C08FA0CF8C2F8148091F803C0B2
:1009A000BCF1480F07D100F1080C4FF0010808FA1C
:1009B0000CF8C2F81080401C0828CED35460BDE863
:1009C000F0814FF6FF710180022181700421C17016
:1009D00070470246002093680B400BB1012000E0F5
:1009E000002070470146886880B2704702460020A8
:1009F000D3680B400BB1012000E000207047014696
:100A0000C86880B2704701617047416170470AB1A0
:100A1000016100E041617047C16070474FF480326E
:100A20000A438261816182618269826970470246FC
:100A30000020434B18684FF68073184040EA0210BC
:100A400008433F4B186070473E49C8617047F0B596
:100A50000A46002300240021002500F00046B6F1DC
:100A6000004F02D1364EF16901E0354E7168C0F396
:100A7000034583B200F44016B6F5401F08D121F0BB
:100A800070612F4E766826F070662D4F7E6012E002
:100A900000F48016B6F5801F06D1032606FA05F489
:100AA000A14341F0706106E0460D360103FA06F6F7
:100AB000B14341F0706122B1460D360103FA06F6EA
:100AC000314300F00046B6F1004F02D11C4EF161F7
:100AD00001E01B4E7160F0BD30B500228B071C0F8A
:100AE0000F2303FA04F2164B08338C1053F824300A
:100AF0009343134C08348D1044F8253023468C1052
:100B000053F824308C07240F00FA04F423430C4CD0
:100B100008348D1044F8253030BD0A49DC310860B6
:100B20007047000000080140000C01400010014027
:100B30000014014000180140001C01400020014049
:100B40000000014000002042DF48006840F0010042
:100B5000DD49086008464068DC490840DA494860D9
:100B600008460068DA490840D74908600846006826
:100B700020F4802008600846406820F4FE004860A9
:100B80004FF41F0088607047CF49096821F4803115
:100B9000CD4A11601146096821F480211160B0F539
:100BA000803F03D0B0F5802F0ED106E0C64909681A
:100BB00041F48031C44A116007E0C349096841F437
:100BC000A021C14A116000E000BF00BF704710B50E
:100BD00001460022002300204A11012A02D1BA4C0A
:100BE000236806E0022A02D1B74C236A01E0B64C22
:100BF000636A01F01F02012494401C400CB10120E3
:100C000000E0002010BD38B5002000900024002531
:100C100000BF3120FFF7DBFF05460098401C009025
:100C20000098B0F5A06F01D0002DF2D03120FFF771
:100C3000CEFF08B1012400E00024204638BD014663
:100C40000020A14A106820F0F80040EAC1001060BE
:100C50007047A04908607047024600209A4B5868C8
:100C600020F47C1042EA01031843974B5860704708
:100C700098490866704701460020934A506820F062
:100C800003000843506070478F48406800F00C0034
:100C90007047014600208C4A506820F0F00008435D
:100CA0005060704701460020874A506820F4E06099
:100CB00008435060704701460020834A506820F482
:100CC000605040EAC1005060704729B17E4A527AB4
:100CD00002437D4B5A7204E07B4A527A82437A4B3C
:100CE0005A7270477B49D83108607047014600202E
:100CF000754A506820F44040084350607047002116
:100D0000714A20321170704A82F82010012802D0F6
:100D100004280AD104E001216B4A2032117005E059
:100D20000521694A2032117000E000BF00BF704702
:100D30006949086070476449096A0143624A11625F
:100D40007047654944390860704730B5002100227A
:100D5000002400235C4D6D6805F00C0121B10429CD
:100D600005D0082923D105E05C4D056022E05C4DEB
:100D700005601FE0544D6D6805F47012524D6D68AA
:100D800005F48034022505EB92421CB9554D5543BC
:100D900005600BE04C4D6D6805F400351DB1524DFA
:100DA0005543056002E04E4D5543056002E04B4D52
:100DB000056000BF00BF444D6D6805F0F0010909F2
:100DC0004A4D6B5C0568DD4045603F4D6D6805F43C
:100DD000E061090A454D6B5C4568DD4085603A4D30
:100DE0006D6805F46051C90A404D6B5C4568DD4093
:100DF000C560354D6D6805F44041890B3C4D6B5C19
:100E0000C568B5FBF3F5056130BD29B12E4A5269BD
:100E100002432D4B5A6104E02B4A526982432A4B0C
:100E20005A61704729B1284A92690243264B9A6158
:100E300004E0254A92698243234B9A61704729B1A5
:100E4000214AD2690243204BDA6104E01E4AD2698A
:100E500082431D4BDA61704729B11B4AD2680243B5
:100E6000194BDA6004E0184AD2688243164BDA6004
:100E7000704729B1144A12690243134B1A6104E006
:100E8000114A12698243104B1A6170471249403966
:100E9000086070470F49C86470470B49C8717047B4
:100EA0000948406A40F0807007494862704701462F
:100EB0000020054A92680A400AB1012000E00020A3
:100EC0007047014988727047001002400000FFF827
:100ED000FFFFF6FE000042428004424200127A0008
:100EE000001BB70000093D00808D5B001D00002045
:100EF0002D00002010B50446FB48844209D1012191
:100F00008803FFF7A9FF00214FF48040FFF7A4FFFB
:100F100032E0F648844209D101214804FFF7A9FFD5
:100F200000214FF40030FFF7A4FF25E0F048844291
:100F300009D101218804FFF79CFF00214FF4802094
:100F4000FFF797FF18E0EB48844209D10121C8045C
:100F5000FFF78FFF00214FF40020FFF78AFF0BE01F
:100F6000E548844208D101210805FFF782FF0021EE
:100F70004FF48010FFF77DFF10BD2DE9F04786B0DC
:100F800005460E460024A24600BFA1460027B089B0
:100F900000B100BF2F462C8A4CF6FF700440F08849
:100FA00004432C82AC894EF6F3100440B08831899A
:100FB0000843718908430443AC81AC8A4FF6FF4073
:100FC0000440B0890443AC8201A8FFF7BEFEC648C6
:100FD000874202D1DDF810A001E0DDF80CA0A8895D
:100FE00000F4004040B10AEBCA0000EB0A1031687F
:100FF0004900B0FBF1F807E00AEBCA0000EB0A1069
:1010000031688900B0FBF1F86420B8FBF0F004010E
:101010002009642101FB1089A88900F4004040B137
:10102000322000EBC900B0FBF1F000F007000443F0
:1010300008E0322000EB09106421B0FBF1F000F071
:101040000F0004432C8106B0BDE8F0874FF4165121
:10105000016000218180C18001810C21418100213A
:101060008181704710B502460020108A4FF2FF03BD
:1010700018400B884C8823438C882343CC88234317
:101080001843108210BD0021018041808180C18001
:10109000704721B1828942F40052828104E0828942
:1010A0004DF6FF731A4082817047F0B50346002465
:1010B00000260025002040F66A17B94200D100BF83
:1010C0001846C1F3421401F01F06012707FA06F57E
:1010D000012C01D10C3004E0022C01D1103000E0D1
:1010E00014301AB107682F43076002E00768AF4366
:1010F0000760F0BD1AB1838A0B43838202E0838AC2
:101100008B4383827047028A4FF6F0731A40028243
:10111000028A0A430282704782894FF2FF731A40A3
:10112000828182890A438281704721B1828942F09B
:101130000202828104E082894FF6FD731A408281A7
:101140007047028A4FF6DF731A400282028A0A430E
:101150000282704721B1028A42F48042028204E096
:10116000028A4BF6FF731A4002827047C1F30802ED
:101170008280704701468888C0F3080070478189E3
:1011800041F0010181817047028BD2B20283028B50
:1011900042EA012202837047028B02F47F420283FB
:1011A000028B0A430283704721B1828A42F02002F7
:1011B000828204E0828A4FF6DF731A40828270478F
:1011C00021B1828A42F01002828204E0828A4FF6C4
:1011D000EF731A408282704721B1828A42F008027E
:1011E000828204E0828A4FF6F7731A408282704747
:1011F00021B1828942F40042828103E08289C2F3F4
:101200000E028281704721B1828A42F4006282829A
:1012100004E0828A4FF2FF731A4082827047828A0A
:101220004FF6FB731A408282828A0A438282704799
:1012300021B1828A42F00202828204E0828A4FF661
:10124000FD731A408282704702460020B1F5007F8C
:1012500000D100BF13880B400BB1012000E000203B
:10126000704701F40072B2F5007F00D100BFCA439D
:101270000280704770B5024600240023002500203C
:1012800040F66A16B14200D100BFC1F3421501F029
:101290001F03012606FA03F3012D02D1968933407C
:1012A00006E0022D02D1168A334001E0968A3340CF
:1012B0000C12012606FA04F41688344013B10CB15E
:1012C000012000E0002070BD10B50022002340F690
:1012D0006A14A14200D100BF0A1201249440A3B2B3
:1012E000DC43048010BD0000003801400044004091
:1012F00000480040004C004000500040314901438C
:10130000314A1160704770B5002100230F22C47864
:1013100004B32D4C246804F4E064C4F5E064210AAD
:10132000C1F10403CA40447804FA03F184781440FC
:1013300021430901254C0678A155047804F01F05C6
:101340000124AC4005786D11AD0005F1E025C5F82C
:10135000004109E0047804F01F050124AC401C4D55
:101360000678761145F8264070BD1A4A0A400243B5
:10137000154B1B1F1A60704739B1134A121D1268B2
:101380000243114B1B1D1A6006E00F4A121D126822
:1013900082430D4B1B1D1A607047042808D14FF083
:1013A000E021096941F004014FF0E022116107E0FA
:1013B0004FF0E021096921F004014FF0E0221161B2
:1013C000704700000000FA050CED00E000E400E0CA
:1013D00080E100E080FFFF1F10B50446FE48844214
:1013E00008D10121C014FFF737FD0021E014FFF7F9
:1013F00033FDC4E0B4F1804F08D101210846FFF766
:1014000038FD00210120FFF734FDB8E0F3488442A5
:1014100008D101210220FFF72CFD00210220FFF757
:1014200028FDACE0EE48844208D101210420FFF7FA
:1014300020FD00210420FFF71CFDA0E0E9488442C4
:1014400008D101210820FFF714FD00210820FFF733
:1014500010FD94E0E448844208D101211020FFF7F8
:1014600008FD00211020FFF704FD88E0DF488442DA
:1014700008D101212020FFF7FCFC00212020FFF7EC
:10148000F8FC7CE0DA48844208D101214014FFF7DF
:10149000E3FC00216014FFF7DFFC70E0D5488442D4
:1014A00009D10121C804FFF7D7FC00214FF4002027
:1014B000FFF7D2FC63E0D048844209D1012108053E
:1014C000FFF7CAFC00214FF48010FFF7C5FC56E07F
:1014D000CA48844209D101214805FFF7BDFC00211B
:1014E0004FF40010FFF7B8FC49E0C548844208D12A
:1014F00001214020FFF7BDFC00214020FFF7B9FC8F
:101500003DE0C048844208D101218020FFF7B1FCB2
:1015100000218020FFF7ADFC31E0BB48844208D1B8
:1015200001218015FFF7A5FC0021A015FFF7A1FC04
:1015300025E0B648844209D101210804FFF78CFC5C
:1015400000214FF48030FFF787FC18E0B048844258
:1015500009D101214804FFF77FFC00214FF400303E
:10156000FFF77AFC0BE0AB48844208D101218804E4
:10157000FFF772FC00214FF48020FFF76DFC10BDD7
:1015800000220288944B98420ED0994B98420BD07F
:10159000B0F1804F08D0914B984205D0904B9842C3
:1015A00002D0904B984204D14FF68F731A404B886B
:1015B0001A438D4B984207D08C4B984204D04FF67B
:1015C000FF431A40CB881A4302808B8883850B889F
:1015D0000385814B98420BD0854B984208D08B4BAA
:1015E000984205D08A4B984202D08A4B984201D14A
:1015F0000B7A038601238382704770B50024002292
:101600000023058C4FF6FE7635400584028C8388D6
:10161000048B4FF68F752C40B51E2C400D882C4343
:10162000751E2A400D892A434D882A436A4DA842D7
:101630000BD06F4DA84208D0744DA84205D0744D10
:10164000A84202D0734DA84213D14FF6F7752A4035
:101650004D892A434FF6FB752A408D882A434FF661
:10166000FF652B404FF6FF552B408D892B43CD89CD
:101670002B4383800483CD888586028470BD70B53A
:10168000002400220023058C4FF6EF7635400584B8
:10169000028C8388048B48F6FF752C404FF6FF457B
:1016A0002C400D884FF6FF7606EA05252C434FF6B1
:1016B000DF752A400D8906EA05152A434D8806EA9A
:1016C00005152A43444DA84202D0494DA8421DD1D8
:1016D0004FF67F752A404D894FF6FF7606EA0515CD
:1016E0002A434FF6BF752A408D8806EA05152A431E
:1016F0004FF6FF352B404FF2FF752B408D8906EAE0
:1017000085052B43CD8906EA85052B438380048319
:10171000CD880587028470BD70B5002400220023A7
:10172000058C4FF6FF6635400584028C8388848BD8
:101730004FF68F752C404FF6FC752C400D882C43CE
:101740004FF6FF552A400D894FF6FF7606EA05252C
:101750002A434D8806EA05252A431F4DA84202D098
:10176000234DA8421DD14FF2FF752A404D894FF6F7
:10177000FF7606EA05252A434FF6FF352A408D8875
:1017800006EA05252A434EF6FF752B404DF6FF75F8
:101790002B408D8906EA05152B43CD8906EA0515F0
:1017A0002B4383808483CD888587028470BD70B588
:1017B000002200230024058C4EF6FF763540058478
:1017C000038C8488828B48F6FF752A404FF6FF45CC
:1017D0002A400D8820E00000002C01400004004059
:1017E00000080040000C00400010004000140040C1
:1017F00000340140004C01400050014000540140C1
:1018000000180040001C0040002000400040014043
:1018100000440140004801404FF6FF7606EA0525E6
:101820002A434DF6FF752B400D8906EA05352B43FB
:101830004D8806EA05352B43FA4DA84202D0FA4DF1
:10184000A84208D14BF6FF752C408D894FF6FF76E4
:1018500006EA85152C4384808283CD88A0F8405009
:10186000038470BD828B4FF2FF331A408283828BD8
:101870004FF6FF7303EA01231A4382837047F0B5E2
:101880000C461546002200210026078C4EF6FF7CF0
:1018900007EA0C070784828B018C4FF6FF7707EA73
:1018A000043640F6FF473A404FF6FF7707EA052730
:1018B0003A434FF6FF7707EA03373A43D94FB84226
:1018C0000ED0D94FB8420BD0B0F1804F08D0D74FCF
:1018D000B84205D0D64FB84202D0D64FB84206D152
:1018E0004DF6FF77394046F48057394305E047F617
:1018F000FF57394044F48057394382830184F0BD57
:10190000828B4FF6F3731A408283828B0A43828361
:101910007047F0B50C461546002200210026078CC2
:101920004FF6FF6C07EA0C070784828B018C4FF699
:10193000FF7707EA04264FF60C773A404FF6FF7719
:1019400007EA03172F433A43B64FB8420ED0B64FBB
:10195000B8420BD0B0F1804F08D0B44FB84205D098
:10196000B34FB84202D0B34FB84206D14FF6FF573B
:10197000394046F48077394305E04FF2FF5739404C
:1019800044F48077394382830184F0BD028B4FF2A7
:10199000FF331A400283028B4FF6FF7303EA0123E1
:1019A0001A4302837047F0B50C4615460022002109
:1019B0000026078C4FF6EF7C07EA0C070784028BA2
:1019C000018C4FF6FF7707EA041640F6FF473A40CE
:1019D0004FF6FF7707EA03373A434FF6FF7707EAF8
:1019E00005273A438F4FB8420ED08F4FB8420BD0E5
:1019F000B0F1804F08D08D4FB84205D08C4FB8421F
:101A000002D08C4FB84206D14FF6DF77394046F00E
:101A10001007394305E04FF65F77394044F010076F
:101A2000394302830184F0BD028B4FF6F3731A40F1
:101A30000283028B0A4302837047F0B50C461546B9
:101A400000220021068C4FF6FE773E400684028B72
:101A5000018C4FF60C7632407E1C06EA03162E43AC
:101A60003243704EB0420ED06F4EB0420BD0B0F148
:101A7000804F08D06D4EB04205D06D4EB04202D0BE
:101A80006C4EB04206D14FF6FD76314044F001066F
:101A9000314305E04FF6F576314044F0010631431D
:101AA00002830184F0BD70B505460C465D48854251
:101AB0000ED05D4885420BD0B5F1804F08D05B4811
:101AC000854205D05A48854202D05A48854200D105
:101AD00000E000BF208850B92389A2886188284689
:101AE000FFF7ABFFE1882846FFF79EFF25E020883F
:101AF00004280AD12389A28861882846FFF753FF6A
:101B0000E1882846FFF742FF17E0208808280AD11D
:101B10002389A28861882846FFF7FBFEE1882846D2
:101B2000FFF7EEFE09E02389A28861882846FFF7C7
:101B3000A6FEE1882846FFF795FE70BD2DE9F0412D
:101B400005460C4600260127608808B9022600E0F9
:101B50000026A088012801D1022700E00127208863
:101B6000A0B92389A28861882846FFF766FFE1882B
:101B70002846FFF759FF23893A4631462846FFF7A2
:101B800012FFE1882846FFF701FF13E02389A288AE
:101B900061882846FFF707FFE1882846FFF7F6FE31
:101BA00023893A4631462846FFF747FFE188284611
:101BB000FFF73AFFBDE8F0810A884B881A438B880B
:101BC0001A43CB881A430B891A434B891A438B89D2
:101BD0001A43A0F8442070474FF6FF71818000211E
:101BE0000180C180418001727047002101804180E5
:101BF0008180C180018141818181C1817047002143
:101C000001804180012181800021C18001817047D4
:101C10000021018041808180C180018141818181D9
:101C200070470000002C01400034014000040040D7
:101C300000080040000C004021B1028842F001027F
:101C4000028004E002884FF6FE731A40028070475B
:101C500031B1B0F8442042F40042A0F8442005E03D
:101C6000B0F84420C2F30E02A0F8442070471AB125
:101C700083890B43838102E083898B43838170478F
:101C80008182704741EA0203A0F8483070471AB1D8
:101C900083890B43838102E083898B43838170476F
:101CA00001894FF6F8721140018170470A46002100
:101CB00001894FF68F73194011430181704730B588
:101CC00004460D4629462046FFF7F0FF208940F0E4
:101CD0000700208130BD2DE9F04104460D4616462F
:101CE0001F46602D06D13B46012231462046FFF7B4
:101CF0005AFE05E03B46012231462046FFF79DFE95
:101D000029462046FFF7D2FF208940F007002081B6
:101D1000BDE8F08130B50C4600210189C9B24FF60B
:101D2000FF7505EA0325154325432943018130BD8D
:101D30002DE9F04105460E461746984600244346D5
:101D40003A4631462846FFF7E5FF2C894FF6F870F2
:101D5000044044F007044FF68F70044044F07004D0
:101D60002C81BDE8F081F0B504460D4616461F46AD
:101D70003B46324629462046FFF7CCFF208940F4F7
:101D800080402081F0BD0185828270470A46002193
:101D900001884FF68F731940114301807047F0B5E9
:101DA0000C4615461E460021002200230189028BA5
:101DB000038C4FF6F877394021434FF6FC473A4001
:101DC00040F201173A434FF6DD773B404FF6FF777D
:101DD00007EA06172F433B43018102830384F0BDCA
:101DE0000A460021018B4FF68F731940114301837E
:101DF00070470A460021018B48F6FF7319404FF6E1
:101E0000FF7303EA02231943018370470A46002146
:101E1000818B4FF68F7319401143818370470A46B7
:101E20000021818B48F6FF7319404FF6FF7303EAD8
:101E3000022319438183704721B1028842F0800256
:101E4000028004E002884FF67F731A4002807047D8
:101E500021B1828842F00402828004E082884FF639
:101E6000FB731A408280704721B1828842F00802D9
:101E7000828004E082884FF6F7731A4082807047B0
:101E800021B1828842F00102828004E082884FF60C
:101E9000FE731A40828070470A460021018B4FF67C
:101EA000F77319401143018370470A460021018BE3
:101EB0004FF2FF7319404FF6FF7303EA02231943F1
:101EC000018370470A460021818B4FF6F773194052
:101ED0001143818370470A460021818B4FF2FF73C3
:101EE00019404FF6FF7303EA0223194381837047B9
:101EF0000A460021018B4FF6FB7319401143018301
:101F000070470A460021018B4FF6FF3319404FF608
:101F1000FF7303EA02231943018370470A46002135
:101F2000818B4FF6FB7319401143818370470A463A
:101F30000021818B4FF6FF3319404FF6FF7303EA00
:101F400002231943818370470A460021018B4FF613
:101F50007F7319401143018370470A460021018BAA
:101F6000C1F30E014FF6FF7303EA02231943018305
:101F700070470A460021818B4FF67F731940114349
:101F8000818370470A460021818BC1F30E014FF611
:101F9000FF7303EA02231943818370470A46002135
:101FA000018C4FF6FD7319401143018470470A46B6
:101FB0000021018C4FF6F7731940114301847047DB
:101FC0000A460021018C4FF6DF7319404FF6FF736C
:101FD00003EA02131943018470470A460021018C69
:101FE0004FF67F7319404FF6FF7303EA021319434C
:101FF000018470470A460021018C4FF6FF531940B7
:102000004FF6FF7303EA02231943018470470A461F
:102010000021018C4FF2FF7319404FF6FF7303EA62
:1020200002231943018470470A460021018C4DF6B2
:10203000FF7319404FF6FF7303EA0233194301841B
:10204000704730B5002301248C40A3B2048C9C431C
:102050000484048C02FA01F5ADB22C43048430BD33
:1020600030B5002304248C40A3B2048C9C43048428
:10207000048C02FA01F5ADB22C43048430BD70B576
:102080000346002000241846183001258D40ACB2CC
:102090001D8CA5431D8409B1082909D100EB6100FD
:1020A000056825F0700505600568154305600EE0BC
:1020B0000D1FC5F34E052844056825F4E04505606D
:1020C00005684FF6FF7606EA02263543056070BDC7
:1020D00021B1028842F00202028004E002884FF639
:1020E000FD731A400280704721B1028842F0040259
:1020F000028004E002884FF6FB731A4002807047AA
:1021000021B1828842F08002828004E082884FF60A
:102110007F731A408280704702884FF6F7731A4027
:10212000028002880A430280704782884FF68F73CC
:102130001A40828082880A438280704702894FF663
:10214000F8731A40028102890A43028170470289AA
:102150004FF67F731A40028102890A430281704759
:1021600081847047818570478186704701877047F9
:1021700081877047A0F84010704702884FF6FF43F0
:102180001A40028002880A43028070470146888E06
:1021900070470146088F70470146888F7047014697
:1021A000B1F8400070470146888C70470146088DA1
:1021B000704702460020138A0B400BB1012000E05B
:1021C00000207047CA430282704730B502460020A3
:1021D00000230024158A05EA0103958905EA010414
:1021E00013B10CB1012000E0002030BDCA430282CF
:1021F0007047704770B5064600F08CF804680546D5
:1022000030460A22002100F089F82C6070BD30B5FC
:1022100005460B462A4613F8014B12F8010B08B18C
:10222000A042F8D01CB1002802D06D1CF1E728466E
:1022300030BD10B5431C02E010F8011B71B18107DD
:10224000FAD14FF0013202C88C1A8C4314EAC21141
:10225000F9D0C01A0A0603D0C01E10BDC01A10BDA6
:102260000A0401D0801E10BD0902FCD0401E10BD22
:102270004FF000020429C0F0128010F0030C00F0AF
:102280008780CCF1040CBCF1020F18BF00F8012BC1
:10229000A8BF20F8022BA1EB0C0100F079B85FEA8F
:1022A000C17C24BF00F8012B00F8012B48BF00F8C7
:1022B000012B704710B5044610F0030F08BF11F052
:1022C000030F40F015804FF0013E121FC0F20E8048
:1022D00051F8043BA3EB0E0C2CEA030C1CEACE1CB9
:1022E00008BF40F8043BF0D0A1F1040102F1040260
:1022F000521E08DB11F8013B002B00F8013BF7D11F
:102300001146FFF7B5FF204610BD70477047704774
:102310007047000000487047980000202DE9F04702
:1023200091460F4680460446002614F8015B2DB105
:1023300000F058F80068405DC007F6D12B2D02D0A0
:102340002D2D18D0641E4A463946204600F052F81A
:1023500027B13968A14201D1C7F800804FF00204CB
:1023600071050BD54042002803DDFFF7D3FF046061
:10237000A007BDE8F08746F48066E4E70028F8DAB5
:10238000FFF7C8FF04606FF00040F2E74FF0000273
:1023900000B5134694469646203922BFA0E80C505B
:1023A000A0E80C50B1F12001BFF4F7AF090728BF36
:1023B000A0E80C5048BF0CC05DF804EB890028BFB2
:1023C00040F8042B08BF704748BF20F8022B11F0DB
:1023D000804F18BF00F8012B70470000004870477D
:1023E0009800002010B500F079F8001D10BD00BF66
:1023F000A50100002DE9F05F824615468B460027B7
:102400000AF10104B9460078302801D09DB113E0EB
:1024100014F8010B0127782803D0582801D045B1C2
:102420000AE00DB1102D07D1002714F8010B10257B
:1024300002E0082500E00A250026B0460EE005FB74
:10244000080005FB06F101271FFA80F801EB104692
:10245000B6F5803F00D3B94614F8010B294600F0C9
:1024600041F80028EBDABBF1000F05D00FB1641E74
:1024700000E05446CBF80040B9F1000F06D0FFF75A
:1024800049FF02210160C81EBDE8F09F48EA0640EE
:10249000FAE77546FFF7A2FFAE46050069465346C8
:1024A00020F00700854618B020B5FEF78DF9BDE88D
:1024B00020404FF000064FF000074FF000084FF0AB
:1024C000000B21F00701AC46ACE8C009ACE8C0093C
:1024D000ACE8C009ACE8C0098D46704700487047B9
:1024E000B80000203A2800D2303820F02002412ADB
:1024F00001D3A2F13700884201D34FF0FF3070477B
:1025000010B50446AFF300802046BDE81040FDF74B
:102510005FBE00004FF0013C50F8042B51F8043B23
:102520009A4221D1A2EB0C03934313EACC1317D1A7
:1025300050F8042B51F8043B9A4215D1A2EB0C033E
:10254000934313EACC130BD150F8042B51F8043BFE
:102550009A4209D1A2EB0C03934313EACC13DBD0CC
:102560004FF00000704700BFD01A01BAB1FA81F1F4
:1025700001F0180122FA01F0CB40C1F12001DBB2D9
:10258000C0B2C01A2CFA01F3D11A914311EAC31157
:10259000E6D1704710B500290AD00878002807D086
:1025A00005487844FFF7B6FF002801D0002010BD91
:1025B0000248784410BD00003E00000036000000D4
:1025C000F026000800000020340000006C01000824
:1025D0002427000834000020C406000088010008F9
:1025E0001001000043000000F8FFFFFF00404040E2
:1025F00040404040404041414141414040404040D6
:102600004040404040404040404040404005020281
:102610000202020202020202020202020220202040
:10262000202020202020200202020202020290909C
:10263000909090901010101010101010101010109A
:1026400010101010101010100202020202028888EE
:1026500088888888080808080808080808080808FA
:1026600008080808080808080202020240000000E2
:10267000000000000000000000000000000000005A
:10268000000000000000000000000000000000004A
:10269000000000000000000000000000000000003A
:1026A000000000000000000000000000000000002A
:1026B000000000000000000000000000000000001A
:1026C000000000000000000000000000000000000A
:1026D00000000000000000000000000000000000FA
:1026E00000000000000000000000000000000000EA
:1026F00000A24A04000000000000000001020304E0
:1027000006070809000000000000000000000000AB
:10271000000102030401020304060708090204067B
:0427200008000000AD
:0400000508000131BD
:00000001FF
